{
  "address": "0x2f82283F13b2A13411Adb9F5a865d009e7B6d72a",
  "abi": [
    {
      "inputs": [
        {
          "internalType": "address",
          "name": "owner",
          "type": "address"
        },
        {
          "internalType": "string",
          "name": "baseTokenUri",
          "type": "string"
        }
      ],
      "stateMutability": "nonpayable",
      "type": "constructor"
    },
    {
      "anonymous": false,
      "inputs": [
        {
          "indexed": true,
          "internalType": "address",
          "name": "owner",
          "type": "address"
        },
        {
          "indexed": true,
          "internalType": "address",
          "name": "approved",
          "type": "address"
        },
        {
          "indexed": true,
          "internalType": "uint256",
          "name": "tokenId",
          "type": "uint256"
        }
      ],
      "name": "Approval",
      "type": "event"
    },
    {
      "anonymous": false,
      "inputs": [
        {
          "indexed": true,
          "internalType": "address",
          "name": "owner",
          "type": "address"
        },
        {
          "indexed": true,
          "internalType": "address",
          "name": "operator",
          "type": "address"
        },
        {
          "indexed": false,
          "internalType": "bool",
          "name": "approved",
          "type": "bool"
        }
      ],
      "name": "ApprovalForAll",
      "type": "event"
    },
    {
      "anonymous": false,
      "inputs": [
        {
          "indexed": true,
          "internalType": "address",
          "name": "previousOwner",
          "type": "address"
        },
        {
          "indexed": true,
          "internalType": "address",
          "name": "newOwner",
          "type": "address"
        }
      ],
      "name": "OwnershipTransferred",
      "type": "event"
    },
    {
      "anonymous": false,
      "inputs": [
        {
          "indexed": true,
          "internalType": "address",
          "name": "from",
          "type": "address"
        },
        {
          "indexed": true,
          "internalType": "address",
          "name": "to",
          "type": "address"
        },
        {
          "indexed": true,
          "internalType": "uint256",
          "name": "tokenId",
          "type": "uint256"
        }
      ],
      "name": "Transfer",
      "type": "event"
    },
    {
      "inputs": [],
      "name": "_baseTokenUri",
      "outputs": [
        {
          "internalType": "string",
          "name": "",
          "type": "string"
        }
      ],
      "stateMutability": "view",
      "type": "function"
    },
    {
      "inputs": [
        {
          "internalType": "address",
          "name": "to",
          "type": "address"
        },
        {
          "internalType": "uint256",
          "name": "tokenId",
          "type": "uint256"
        }
      ],
      "name": "approve",
      "outputs": [],
      "stateMutability": "nonpayable",
      "type": "function"
    },
    {
      "inputs": [
        {
          "internalType": "address",
          "name": "owner",
          "type": "address"
        }
      ],
      "name": "balanceOf",
      "outputs": [
        {
          "internalType": "uint256",
          "name": "",
          "type": "uint256"
        }
      ],
      "stateMutability": "view",
      "type": "function"
    },
    {
      "inputs": [
        {
          "internalType": "uint256",
          "name": "tokenId",
          "type": "uint256"
        }
      ],
      "name": "getApproved",
      "outputs": [
        {
          "internalType": "address",
          "name": "",
          "type": "address"
        }
      ],
      "stateMutability": "view",
      "type": "function"
    },
    {
      "inputs": [
        {
          "internalType": "address",
          "name": "owner",
          "type": "address"
        },
        {
          "internalType": "address",
          "name": "operator",
          "type": "address"
        }
      ],
      "name": "isApprovedForAll",
      "outputs": [
        {
          "internalType": "bool",
          "name": "",
          "type": "bool"
        }
      ],
      "stateMutability": "view",
      "type": "function"
    },
    {
      "inputs": [
        {
          "internalType": "uint256",
          "name": "count",
          "type": "uint256"
        },
        {
          "internalType": "address",
          "name": "to",
          "type": "address"
        }
      ],
      "name": "mint",
      "outputs": [],
      "stateMutability": "nonpayable",
      "type": "function"
    },
    {
      "inputs": [],
      "name": "name",
      "outputs": [
        {
          "internalType": "string",
          "name": "",
          "type": "string"
        }
      ],
      "stateMutability": "view",
      "type": "function"
    },
    {
      "inputs": [],
      "name": "owner",
      "outputs": [
        {
          "internalType": "address",
          "name": "",
          "type": "address"
        }
      ],
      "stateMutability": "view",
      "type": "function"
    },
    {
      "inputs": [
        {
          "internalType": "uint256",
          "name": "tokenId",
          "type": "uint256"
        }
      ],
      "name": "ownerOf",
      "outputs": [
        {
          "internalType": "address",
          "name": "",
          "type": "address"
        }
      ],
      "stateMutability": "view",
      "type": "function"
    },
    {
      "inputs": [],
      "name": "renounceOwnership",
      "outputs": [],
      "stateMutability": "nonpayable",
      "type": "function"
    },
    {
      "inputs": [
        {
          "internalType": "address",
          "name": "from",
          "type": "address"
        },
        {
          "internalType": "address",
          "name": "to",
          "type": "address"
        },
        {
          "internalType": "uint256",
          "name": "tokenId",
          "type": "uint256"
        }
      ],
      "name": "safeTransferFrom",
      "outputs": [],
      "stateMutability": "nonpayable",
      "type": "function"
    },
    {
      "inputs": [
        {
          "internalType": "address",
          "name": "from",
          "type": "address"
        },
        {
          "internalType": "address",
          "name": "to",
          "type": "address"
        },
        {
          "internalType": "uint256",
          "name": "tokenId",
          "type": "uint256"
        },
        {
          "internalType": "bytes",
          "name": "_data",
          "type": "bytes"
        }
      ],
      "name": "safeTransferFrom",
      "outputs": [],
      "stateMutability": "nonpayable",
      "type": "function"
    },
    {
      "inputs": [
        {
          "internalType": "address",
          "name": "operator",
          "type": "address"
        },
        {
          "internalType": "bool",
          "name": "approved",
          "type": "bool"
        }
      ],
      "name": "setApprovalForAll",
      "outputs": [],
      "stateMutability": "nonpayable",
      "type": "function"
    },
    {
      "inputs": [
        {
          "internalType": "bytes4",
          "name": "interfaceId",
          "type": "bytes4"
        }
      ],
      "name": "supportsInterface",
      "outputs": [
        {
          "internalType": "bool",
          "name": "",
          "type": "bool"
        }
      ],
      "stateMutability": "view",
      "type": "function"
    },
    {
      "inputs": [],
      "name": "symbol",
      "outputs": [
        {
          "internalType": "string",
          "name": "",
          "type": "string"
        }
      ],
      "stateMutability": "view",
      "type": "function"
    },
    {
      "inputs": [
        {
          "internalType": "address",
          "name": "owner",
          "type": "address"
        },
        {
          "internalType": "uint256",
          "name": "index",
          "type": "uint256"
        }
      ],
      "name": "tokenOfOwnerByIndex",
      "outputs": [
        {
          "internalType": "uint256",
          "name": "",
          "type": "uint256"
        }
      ],
      "stateMutability": "view",
      "type": "function"
    },
    {
      "inputs": [
        {
          "internalType": "uint256",
          "name": "tokenId",
          "type": "uint256"
        }
      ],
      "name": "tokenURI",
      "outputs": [
        {
          "internalType": "string",
          "name": "",
          "type": "string"
        }
      ],
      "stateMutability": "view",
      "type": "function"
    },
    {
      "inputs": [],
      "name": "totalSupply",
      "outputs": [
        {
          "internalType": "uint256",
          "name": "",
          "type": "uint256"
        }
      ],
      "stateMutability": "view",
      "type": "function"
    },
    {
      "inputs": [
        {
          "internalType": "address",
          "name": "from",
          "type": "address"
        },
        {
          "internalType": "address",
          "name": "to",
          "type": "address"
        },
        {
          "internalType": "uint256",
          "name": "tokenId",
          "type": "uint256"
        }
      ],
      "name": "transferFrom",
      "outputs": [],
      "stateMutability": "nonpayable",
      "type": "function"
    },
    {
      "inputs": [
        {
          "internalType": "address",
          "name": "newOwner",
          "type": "address"
        }
      ],
      "name": "transferOwnership",
      "outputs": [],
      "stateMutability": "nonpayable",
      "type": "function"
    }
  ],
  "bytecode": "0x60806040523480156200001157600080fd5b5060405162003bed38038062003bed83398181016040528101906200003791906200035d565b6040518060400160405280600681526020017f4d4d4c616e6400000000000000000000000000000000000000000000000000008152506040518060400160405280600581526020017f4d4d4c2d310000000000000000000000000000000000000000000000000000008152508160009080519060200190620000bb92919062000224565b508060019080519060200190620000d492919062000224565b505050620000f7620000eb6200014060201b60201c565b6200014860201b60201c565b62000108826200014860201b60201c565b6200011f60086200020e60201b62000fb81760201c565b80600990805190602001906200013792919062000224565b50505062000575565b600033905090565b6000600760009054906101000a900473ffffffffffffffffffffffffffffffffffffffff16905081600760006101000a81548173ffffffffffffffffffffffffffffffffffffffff021916908373ffffffffffffffffffffffffffffffffffffffff1602179055508173ffffffffffffffffffffffffffffffffffffffff168173ffffffffffffffffffffffffffffffffffffffff167f8be0079c531659141344cd1fd0a4f28419497f9722a3daafe3b4186f6b6457e060405160405180910390a35050565b6001816000016000828254019250508190555050565b828054620002329062000480565b90600052602060002090601f016020900481019282620002565760008555620002a2565b82601f106200027157805160ff1916838001178555620002a2565b82800160010185558215620002a2579182015b82811115620002a157825182559160200191906001019062000284565b5b509050620002b19190620002b5565b5090565b5b80821115620002d0576000816000905550600101620002b6565b5090565b6000620002eb620002e584620003e0565b620003b7565b9050828152602081018484840111156200030457600080fd5b620003118482856200044a565b509392505050565b6000815190506200032a816200055b565b92915050565b600082601f8301126200034257600080fd5b815162000354848260208601620002d4565b91505092915050565b600080604083850312156200037157600080fd5b6000620003818582860162000319565b925050602083015167ffffffffffffffff8111156200039f57600080fd5b620003ad8582860162000330565b9150509250929050565b6000620003c3620003d6565b9050620003d18282620004b6565b919050565b6000604051905090565b600067ffffffffffffffff821115620003fe57620003fd6200051b565b5b62000409826200054a565b9050602081019050919050565b600062000423826200042a565b9050919050565b600073ffffffffffffffffffffffffffffffffffffffff82169050919050565b60005b838110156200046a5780820151818401526020810190506200044d565b838111156200047a576000848401525b50505050565b600060028204905060018216806200049957607f821691505b60208210811415620004b057620004af620004ec565b5b50919050565b620004c1826200054a565b810181811067ffffffffffffffff82111715620004e357620004e26200051b565b5b80604052505050565b7f4e487b7100000000000000000000000000000000000000000000000000000000600052602260045260246000fd5b7f4e487b7100000000000000000000000000000000000000000000000000000000600052604160045260246000fd5b6000601f19601f8301169050919050565b620005668162000416565b81146200057257600080fd5b50565b61366880620005856000396000f3fe608060405234801561001057600080fd5b506004361061012c5760003560e01c806370a08231116100ad578063a22cb46511610071578063a22cb46514610331578063b88d4fde1461034d578063c87b56dd14610369578063e985e9c514610399578063f2fde38b146103c95761012c565b806370a082311461029f578063715018a6146102cf5780638da5cb5b146102d957806394bf804d146102f757806395d89b41146103135761012c565b806323b872dd116100f457806323b872dd146101e95780632f745c591461020557806342842e0e1461023557806348200604146102515780636352211e1461026f5761012c565b806301ffc9a71461013157806306fdde0314610161578063081812fc1461017f578063095ea7b3146101af57806318160ddd146101cb575b600080fd5b61014b60048036038101906101469190612446565b6103e5565b60405161015891906129dd565b60405180910390f35b6101696104c7565b60405161017691906129f8565b60405180910390f35b61019960048036038101906101949190612498565b610559565b6040516101a69190612976565b60405180910390f35b6101c960048036038101906101c4919061240a565b6105de565b005b6101d36106f6565b6040516101e09190612c7a565b60405180910390f35b61020360048036038101906101fe9190612304565b610713565b005b61021f600480360381019061021a919061240a565b610773565b60405161022c9190612c7a565b60405180910390f35b61024f600480360381019061024a9190612304565b610818565b005b610259610838565b60405161026691906129f8565b60405180910390f35b61028960048036038101906102849190612498565b6108c6565b6040516102969190612976565b60405180910390f35b6102b960048036038101906102b4919061229f565b610978565b6040516102c69190612c7a565b60405180910390f35b6102d7610a30565b005b6102e1610ab8565b6040516102ee9190612976565b60405180910390f35b610311600480360381019061030c91906124c1565b610ae2565b005b61031b610bd0565b60405161032891906129f8565b60405180910390f35b61034b600480360381019061034691906123ce565b610c62565b005b61036760048036038101906103629190612353565b610c78565b005b610383600480360381019061037e9190612498565b610cda565b60405161039091906129f8565b60405180910390f35b6103b360048036038101906103ae91906122c8565b610e2c565b6040516103c091906129dd565b60405180910390f35b6103e360048036038101906103de919061229f565b610ec0565b005b60007f80ac58cd000000000000000000000000000000000000000000000000000000007bffffffffffffffffffffffffffffffffffffffffffffffffffffffff1916827bffffffffffffffffffffffffffffffffffffffffffffffffffffffff191614806104b057507f5b5e139f000000000000000000000000000000000000000000000000000000007bffffffffffffffffffffffffffffffffffffffffffffffffffffffff1916827bffffffffffffffffffffffffffffffffffffffffffffffffffffffff1916145b806104c057506104bf82610fce565b5b9050919050565b6060600080546104d690612eb4565b80601f016020809104026020016040519081016040528092919081815260200182805461050290612eb4565b801561054f5780601f106105245761010080835404028352916020019161054f565b820191906000526020600020905b81548152906001019060200180831161053257829003601f168201915b5050505050905090565b600061056482611038565b6105a3576040517f08c379a000000000000000000000000000000000000000000000000000000000815260040161059a90612bda565b60405180910390fd5b6004600083815260200190815260200160002060009054906101000a900473ffffffffffffffffffffffffffffffffffffffff169050919050565b60006105e9826108c6565b90508073ffffffffffffffffffffffffffffffffffffffff168373ffffffffffffffffffffffffffffffffffffffff16141561065a576040517f08c379a000000000000000000000000000000000000000000000000000000000815260040161065190612c3a565b60405180910390fd5b8073ffffffffffffffffffffffffffffffffffffffff166106796110a4565b73ffffffffffffffffffffffffffffffffffffffff1614806106a857506106a7816106a26110a4565b610e2c565b5b6106e7576040517f08c379a00000000000000000000000000000000000000000000000000000000081526004016106de90612b1a565b60405180910390fd5b6106f183836110ac565b505050565b600060016107046008611165565b61070e9190612dca565b905090565b61072461071e6110a4565b82611173565b610763576040517f08c379a000000000000000000000000000000000000000000000000000000000815260040161075a90612c5a565b60405180910390fd5b61076e838383611251565b505050565b600061077e83610978565b82106107bf576040517f08c379a00000000000000000000000000000000000000000000000000000000081526004016107b690612a1a565b60405180910390fd5b600a60008473ffffffffffffffffffffffffffffffffffffffff1673ffffffffffffffffffffffffffffffffffffffff168152602001908152602001600020600083815260200190815260200160002054905092915050565b61083383838360405180602001604052806000815250610c78565b505050565b6009805461084590612eb4565b80601f016020809104026020016040519081016040528092919081815260200182805461087190612eb4565b80156108be5780601f10610893576101008083540402835291602001916108be565b820191906000526020600020905b8154815290600101906020018083116108a157829003601f168201915b505050505081565b6000806002600084815260200190815260200160002060009054906101000a900473ffffffffffffffffffffffffffffffffffffffff169050600073ffffffffffffffffffffffffffffffffffffffff168173ffffffffffffffffffffffffffffffffffffffff16141561096f576040517f08c379a000000000000000000000000000000000000000000000000000000000815260040161096690612b5a565b60405180910390fd5b80915050919050565b60008073ffffffffffffffffffffffffffffffffffffffff168273ffffffffffffffffffffffffffffffffffffffff1614156109e9576040517f08c379a00000000000000000000000000000000000000000000000000000000081526004016109e090612b3a565b60405180910390fd5b600360008373ffffffffffffffffffffffffffffffffffffffff1673ffffffffffffffffffffffffffffffffffffffff168152602001908152602001600020549050919050565b610a386110a4565b73ffffffffffffffffffffffffffffffffffffffff16610a56610ab8565b73ffffffffffffffffffffffffffffffffffffffff1614610aac576040517f08c379a0000000000000000000000000000000000000000000000000000000008152600401610aa390612bfa565b60405180910390fd5b610ab660006114b8565b565b6000600760009054906101000a900473ffffffffffffffffffffffffffffffffffffffff16905090565b610aea6110a4565b73ffffffffffffffffffffffffffffffffffffffff16610b08610ab8565b73ffffffffffffffffffffffffffffffffffffffff1614610b5e576040517f08c379a0000000000000000000000000000000000000000000000000000000008152600401610b5590612bfa565b60405180910390fd5b60005b82811015610bcb576000610b756008611165565b9050610b816008610fb8565b610b8b838261157e565b610bb781600983604051602001610ba3929190612943565b60405160208183030381529060405261159c565b508080610bc390612f17565b915050610b61565b505050565b606060018054610bdf90612eb4565b80601f0160208091040260200160405190810160405280929190818152602001828054610c0b90612eb4565b8015610c585780601f10610c2d57610100808354040283529160200191610c58565b820191906000526020600020905b815481529060010190602001808311610c3b57829003601f168201915b5050505050905090565b610c74610c6d6110a4565b8383611610565b5050565b610c89610c836110a4565b83611173565b610cc8576040517f08c379a0000000000000000000000000000000000000000000000000000000008152600401610cbf90612c5a565b60405180910390fd5b610cd48484848461177d565b50505050565b6060610ce582611038565b610d24576040517f08c379a0000000000000000000000000000000000000000000000000000000008152600401610d1b90612bba565b60405180910390fd5b6000600660008481526020019081526020016000208054610d4490612eb4565b80601f0160208091040260200160405190810160405280929190818152602001828054610d7090612eb4565b8015610dbd5780601f10610d9257610100808354040283529160200191610dbd565b820191906000526020600020905b815481529060010190602001808311610da057829003601f168201915b505050505090506000610dce6117d9565b9050600081511415610de4578192505050610e27565b600082511115610e19578082604051602001610e0192919061291f565b60405160208183030381529060405292505050610e27565b610e22846117f0565b925050505b919050565b6000600560008473ffffffffffffffffffffffffffffffffffffffff1673ffffffffffffffffffffffffffffffffffffffff16815260200190815260200160002060008373ffffffffffffffffffffffffffffffffffffffff1673ffffffffffffffffffffffffffffffffffffffff16815260200190815260200160002060009054906101000a900460ff16905092915050565b610ec86110a4565b73ffffffffffffffffffffffffffffffffffffffff16610ee6610ab8565b73ffffffffffffffffffffffffffffffffffffffff1614610f3c576040517f08c379a0000000000000000000000000000000000000000000000000000000008152600401610f3390612bfa565b60405180910390fd5b600073ffffffffffffffffffffffffffffffffffffffff168173ffffffffffffffffffffffffffffffffffffffff161415610fac576040517f08c379a0000000000000000000000000000000000000000000000000000000008152600401610fa390612a5a565b60405180910390fd5b610fb5816114b8565b50565b6001816000016000828254019250508190555050565b60007f01ffc9a7000000000000000000000000000000000000000000000000000000007bffffffffffffffffffffffffffffffffffffffffffffffffffffffff1916827bffffffffffffffffffffffffffffffffffffffffffffffffffffffff1916149050919050565b60008073ffffffffffffffffffffffffffffffffffffffff166002600084815260200190815260200160002060009054906101000a900473ffffffffffffffffffffffffffffffffffffffff1673ffffffffffffffffffffffffffffffffffffffff1614159050919050565b600033905090565b816004600083815260200190815260200160002060006101000a81548173ffffffffffffffffffffffffffffffffffffffff021916908373ffffffffffffffffffffffffffffffffffffffff160217905550808273ffffffffffffffffffffffffffffffffffffffff1661111f836108c6565b73ffffffffffffffffffffffffffffffffffffffff167f8c5be1e5ebec7d5bd14f71427d1e84f3dd0314c0f7b2291e5b200ac8c7c3b92560405160405180910390a45050565b600081600001549050919050565b600061117e82611038565b6111bd576040517f08c379a00000000000000000000000000000000000000000000000000000000081526004016111b490612afa565b60405180910390fd5b60006111c8836108c6565b90508073ffffffffffffffffffffffffffffffffffffffff168473ffffffffffffffffffffffffffffffffffffffff16148061123757508373ffffffffffffffffffffffffffffffffffffffff1661121f84610559565b73ffffffffffffffffffffffffffffffffffffffff16145b8061124857506112478185610e2c565b5b91505092915050565b8273ffffffffffffffffffffffffffffffffffffffff16611271826108c6565b73ffffffffffffffffffffffffffffffffffffffff16146112c7576040517f08c379a00000000000000000000000000000000000000000000000000000000081526004016112be90612a7a565b60405180910390fd5b600073ffffffffffffffffffffffffffffffffffffffff168273ffffffffffffffffffffffffffffffffffffffff161415611337576040517f08c379a000000000000000000000000000000000000000000000000000000000815260040161132e90612aba565b60405180910390fd5b611342838383611897565b61134d6000826110ac565b6001600360008573ffffffffffffffffffffffffffffffffffffffff1673ffffffffffffffffffffffffffffffffffffffff168152602001908152602001600020600082825461139d9190612dca565b925050819055506001600360008473ffffffffffffffffffffffffffffffffffffffff1673ffffffffffffffffffffffffffffffffffffffff16815260200190815260200160002060008282546113f49190612d43565b92505081905550816002600083815260200190815260200160002060006101000a81548173ffffffffffffffffffffffffffffffffffffffff021916908373ffffffffffffffffffffffffffffffffffffffff160217905550808273ffffffffffffffffffffffffffffffffffffffff168473ffffffffffffffffffffffffffffffffffffffff167fddf252ad1be2c89b69c2b068fc378daa952ba7f163c4a11628f55a4df523b3ef60405160405180910390a46114b3838383611999565b505050565b6000600760009054906101000a900473ffffffffffffffffffffffffffffffffffffffff16905081600760006101000a81548173ffffffffffffffffffffffffffffffffffffffff021916908373ffffffffffffffffffffffffffffffffffffffff1602179055508173ffffffffffffffffffffffffffffffffffffffff168173ffffffffffffffffffffffffffffffffffffffff167f8be0079c531659141344cd1fd0a4f28419497f9722a3daafe3b4186f6b6457e060405160405180910390a35050565b61159882826040518060200160405280600081525061199e565b5050565b6115a582611038565b6115e4576040517f08c379a00000000000000000000000000000000000000000000000000000000081526004016115db90612b7a565b60405180910390fd5b8060066000848152602001908152602001600020908051906020019061160b92919061212b565b505050565b8173ffffffffffffffffffffffffffffffffffffffff168373ffffffffffffffffffffffffffffffffffffffff16141561167f576040517f08c379a000000000000000000000000000000000000000000000000000000000815260040161167690612ada565b60405180910390fd5b80600560008573ffffffffffffffffffffffffffffffffffffffff1673ffffffffffffffffffffffffffffffffffffffff16815260200190815260200160002060008473ffffffffffffffffffffffffffffffffffffffff1673ffffffffffffffffffffffffffffffffffffffff16815260200190815260200160002060006101000a81548160ff0219169083151502179055508173ffffffffffffffffffffffffffffffffffffffff168373ffffffffffffffffffffffffffffffffffffffff167f17307eab39ab6107e8899845ad3d59bd9653f200f220920489ca2b5937696c318360405161177091906129dd565b60405180910390a3505050565b611788848484611251565b611794848484846119f9565b6117d3576040517f08c379a00000000000000000000000000000000000000000000000000000000081526004016117ca90612a3a565b60405180910390fd5b50505050565b606060405180602001604052806000815250905090565b60606117fb82611038565b61183a576040517f08c379a000000000000000000000000000000000000000000000000000000000815260040161183190612c1a565b60405180910390fd5b60006118446117d9565b90506000815111611864576040518060200160405280600081525061188f565b8061186e84611b90565b60405160200161187f92919061291f565b6040516020818303038152906040525b915050919050565b6118a2838383611d3d565b600073ffffffffffffffffffffffffffffffffffffffff168373ffffffffffffffffffffffffffffffffffffffff161415801561190b57508173ffffffffffffffffffffffffffffffffffffffff168373ffffffffffffffffffffffffffffffffffffffff1614155b1561191b5761191a8382611d42565b5b600073ffffffffffffffffffffffffffffffffffffffff168273ffffffffffffffffffffffffffffffffffffffff161415801561198457508273ffffffffffffffffffffffffffffffffffffffff168273ffffffffffffffffffffffffffffffffffffffff1614155b15611994576119938282611eaf565b5b505050565b505050565b6119a88383611f2e565b6119b560008484846119f9565b6119f4576040517f08c379a00000000000000000000000000000000000000000000000000000000081526004016119eb90612a3a565b60405180910390fd5b505050565b6000611a1a8473ffffffffffffffffffffffffffffffffffffffff16612108565b15611b83578373ffffffffffffffffffffffffffffffffffffffff1663150b7a02611a436110a4565b8786866040518563ffffffff1660e01b8152600401611a659493929190612991565b602060405180830381600087803b158015611a7f57600080fd5b505af1925050508015611ab057506040513d601f19601f82011682018060405250810190611aad919061246f565b60015b611b33573d8060008114611ae0576040519150601f19603f3d011682016040523d82523d6000602084013e611ae5565b606091505b50600081511415611b2b576040517f08c379a0000000000000000000000000000000000000000000000000000000008152600401611b2290612a3a565b60405180910390fd5b805181602001fd5b63150b7a0260e01b7bffffffffffffffffffffffffffffffffffffffffffffffffffffffff1916817bffffffffffffffffffffffffffffffffffffffffffffffffffffffff191614915050611b88565b600190505b949350505050565b60606000821415611bd8576040518060400160405280600181526020017f30000000000000000000000000000000000000000000000000000000000000008152509050611d38565b600082905060005b60008214611c0a578080611bf390612f17565b915050600a82611c039190612d99565b9150611be0565b60008167ffffffffffffffff811115611c4c577f4e487b7100000000000000000000000000000000000000000000000000000000600052604160045260246000fd5b6040519080825280601f01601f191660200182016040528015611c7e5781602001600182028036833780820191505090505b5090505b60008514611d3157600182611c979190612dca565b9150600a85611ca69190612f6a565b6030611cb29190612d43565b60f81b818381518110611cee577f4e487b7100000000000000000000000000000000000000000000000000000000600052603260045260246000fd5b60200101907effffffffffffffffffffffffffffffffffffffffffffffffffffffffffffff1916908160001a905350600a85611d2a9190612d99565b9450611c82565b8093505050505b919050565b505050565b60006001611d4f84610978565b611d599190612dca565b90506000600b6000848152602001908152602001600020549050818114611e3e576000600a60008673ffffffffffffffffffffffffffffffffffffffff1673ffffffffffffffffffffffffffffffffffffffff168152602001908152602001600020600084815260200190815260200160002054905080600a60008773ffffffffffffffffffffffffffffffffffffffff1673ffffffffffffffffffffffffffffffffffffffff16815260200190815260200160002060008481526020019081526020016000208190555081600b600083815260200190815260200160002081905550505b600b600084815260200190815260200160002060009055600a60008573ffffffffffffffffffffffffffffffffffffffff1673ffffffffffffffffffffffffffffffffffffffff16815260200190815260200160002060008381526020019081526020016000206000905550505050565b6000611eba83610978565b905081600a60008573ffffffffffffffffffffffffffffffffffffffff1673ffffffffffffffffffffffffffffffffffffffff16815260200190815260200160002060008381526020019081526020016000208190555080600b600084815260200190815260200160002081905550505050565b600073ffffffffffffffffffffffffffffffffffffffff168273ffffffffffffffffffffffffffffffffffffffff161415611f9e576040517f08c379a0000000000000000000000000000000000000000000000000000000008152600401611f9590612b9a565b60405180910390fd5b611fa781611038565b15611fe7576040517f08c379a0000000000000000000000000000000000000000000000000000000008152600401611fde90612a9a565b60405180910390fd5b611ff360008383611897565b6001600360008473ffffffffffffffffffffffffffffffffffffffff1673ffffffffffffffffffffffffffffffffffffffff16815260200190815260200160002060008282546120439190612d43565b92505081905550816002600083815260200190815260200160002060006101000a81548173ffffffffffffffffffffffffffffffffffffffff021916908373ffffffffffffffffffffffffffffffffffffffff160217905550808273ffffffffffffffffffffffffffffffffffffffff16600073ffffffffffffffffffffffffffffffffffffffff167fddf252ad1be2c89b69c2b068fc378daa952ba7f163c4a11628f55a4df523b3ef60405160405180910390a461210460008383611999565b5050565b6000808273ffffffffffffffffffffffffffffffffffffffff163b119050919050565b82805461213790612eb4565b90600052602060002090601f01602090048101928261215957600085556121a0565b82601f1061217257805160ff19168380011785556121a0565b828001600101855582156121a0579182015b8281111561219f578251825591602001919060010190612184565b5b5090506121ad91906121b1565b5090565b5b808211156121ca5760008160009055506001016121b2565b5090565b60006121e16121dc84612cba565b612c95565b9050828152602081018484840111156121f957600080fd5b612204848285612e72565b509392505050565b60008135905061221b816135d6565b92915050565b600081359050612230816135ed565b92915050565b60008135905061224581613604565b92915050565b60008151905061225a81613604565b92915050565b600082601f83011261227157600080fd5b81356122818482602086016121ce565b91505092915050565b6000813590506122998161361b565b92915050565b6000602082840312156122b157600080fd5b60006122bf8482850161220c565b91505092915050565b600080604083850312156122db57600080fd5b60006122e98582860161220c565b92505060206122fa8582860161220c565b9150509250929050565b60008060006060848603121561231957600080fd5b60006123278682870161220c565b93505060206123388682870161220c565b92505060406123498682870161228a565b9150509250925092565b6000806000806080858703121561236957600080fd5b60006123778782880161220c565b94505060206123888782880161220c565b93505060406123998782880161228a565b925050606085013567ffffffffffffffff8111156123b657600080fd5b6123c287828801612260565b91505092959194509250565b600080604083850312156123e157600080fd5b60006123ef8582860161220c565b925050602061240085828601612221565b9150509250929050565b6000806040838503121561241d57600080fd5b600061242b8582860161220c565b925050602061243c8582860161228a565b9150509250929050565b60006020828403121561245857600080fd5b600061246684828501612236565b91505092915050565b60006020828403121561248157600080fd5b600061248f8482850161224b565b91505092915050565b6000602082840312156124aa57600080fd5b60006124b88482850161228a565b91505092915050565b600080604083850312156124d457600080fd5b60006124e28582860161228a565b92505060206124f38582860161220c565b9150509250929050565b61250681612dfe565b82525050565b61251581612e10565b82525050565b600061252682612d00565b6125308185612d16565b9350612540818560208601612e81565b61254981613057565b840191505092915050565b600061255f82612d0b565b6125698185612d27565b9350612579818560208601612e81565b61258281613057565b840191505092915050565b600061259882612d0b565b6125a28185612d38565b93506125b2818560208601612e81565b80840191505092915050565b600081546125cb81612eb4565b6125d58186612d38565b945060018216600081146125f0576001811461260157612634565b60ff19831686528186019350612634565b61260a85612ceb565b60005b8381101561262c5781548189015260018201915060208101905061260d565b838801955050505b50505092915050565b600061264a602b83612d27565b915061265582613068565b604082019050919050565b600061266d603283612d27565b9150612678826130b7565b604082019050919050565b6000612690602683612d27565b915061269b82613106565b604082019050919050565b60006126b3602583612d27565b91506126be82613155565b604082019050919050565b60006126d6601c83612d27565b91506126e1826131a4565b602082019050919050565b60006126f9602483612d27565b9150612704826131cd565b604082019050919050565b600061271c601983612d27565b91506127278261321c565b602082019050919050565b600061273f602c83612d27565b915061274a82613245565b604082019050919050565b6000612762603883612d27565b915061276d82613294565b604082019050919050565b6000612785602a83612d27565b9150612790826132e3565b604082019050919050565b60006127a8602983612d27565b91506127b382613332565b604082019050919050565b60006127cb602e83612d27565b91506127d682613381565b604082019050919050565b60006127ee602083612d27565b91506127f9826133d0565b602082019050919050565b6000612811603183612d27565b915061281c826133f9565b604082019050919050565b6000612834602c83612d27565b915061283f82613448565b604082019050919050565b6000612857600583612d38565b915061286282613497565b600582019050919050565b600061287a602083612d27565b9150612885826134c0565b602082019050919050565b600061289d602f83612d27565b91506128a8826134e9565b604082019050919050565b60006128c0602183612d27565b91506128cb82613538565b604082019050919050565b60006128e3603183612d27565b91506128ee82613587565b604082019050919050565b61290281612e68565b82525050565b61291961291482612e68565b612f60565b82525050565b600061292b828561258d565b9150612937828461258d565b91508190509392505050565b600061294f82856125be565b915061295b8284612908565b60208201915061296a8261284a565b91508190509392505050565b600060208201905061298b60008301846124fd565b92915050565b60006080820190506129a660008301876124fd565b6129b360208301866124fd565b6129c060408301856128f9565b81810360608301526129d2818461251b565b905095945050505050565b60006020820190506129f2600083018461250c565b92915050565b60006020820190508181036000830152612a128184612554565b905092915050565b60006020820190508181036000830152612a338161263d565b9050919050565b60006020820190508181036000830152612a5381612660565b9050919050565b60006020820190508181036000830152612a7381612683565b9050919050565b60006020820190508181036000830152612a93816126a6565b9050919050565b60006020820190508181036000830152612ab3816126c9565b9050919050565b60006020820190508181036000830152612ad3816126ec565b9050919050565b60006020820190508181036000830152612af38161270f565b9050919050565b60006020820190508181036000830152612b1381612732565b9050919050565b60006020820190508181036000830152612b3381612755565b9050919050565b60006020820190508181036000830152612b5381612778565b9050919050565b60006020820190508181036000830152612b738161279b565b9050919050565b60006020820190508181036000830152612b93816127be565b9050919050565b60006020820190508181036000830152612bb3816127e1565b9050919050565b60006020820190508181036000830152612bd381612804565b9050919050565b60006020820190508181036000830152612bf381612827565b9050919050565b60006020820190508181036000830152612c138161286d565b9050919050565b60006020820190508181036000830152612c3381612890565b9050919050565b60006020820190508181036000830152612c53816128b3565b9050919050565b60006020820190508181036000830152612c73816128d6565b9050919050565b6000602082019050612c8f60008301846128f9565b92915050565b6000612c9f612cb0565b9050612cab8282612ee6565b919050565b6000604051905090565b600067ffffffffffffffff821115612cd557612cd4613028565b5b612cde82613057565b9050602081019050919050565b60008190508160005260206000209050919050565b600081519050919050565b600081519050919050565b600082825260208201905092915050565b600082825260208201905092915050565b600081905092915050565b6000612d4e82612e68565b9150612d5983612e68565b9250827fffffffffffffffffffffffffffffffffffffffffffffffffffffffffffffffff03821115612d8e57612d8d612f9b565b5b828201905092915050565b6000612da482612e68565b9150612daf83612e68565b925082612dbf57612dbe612fca565b5b828204905092915050565b6000612dd582612e68565b9150612de083612e68565b925082821015612df357612df2612f9b565b5b828203905092915050565b6000612e0982612e48565b9050919050565b60008115159050919050565b60007fffffffff0000000000000000000000000000000000000000000000000000000082169050919050565b600073ffffffffffffffffffffffffffffffffffffffff82169050919050565b6000819050919050565b82818337600083830152505050565b60005b83811015612e9f578082015181840152602081019050612e84565b83811115612eae576000848401525b50505050565b60006002820490506001821680612ecc57607f821691505b60208210811415612ee057612edf612ff9565b5b50919050565b612eef82613057565b810181811067ffffffffffffffff82111715612f0e57612f0d613028565b5b80604052505050565b6000612f2282612e68565b91507fffffffffffffffffffffffffffffffffffffffffffffffffffffffffffffffff821415612f5557612f54612f9b565b5b600182019050919050565b6000819050919050565b6000612f7582612e68565b9150612f8083612e68565b925082612f9057612f8f612fca565b5b828206905092915050565b7f4e487b7100000000000000000000000000000000000000000000000000000000600052601160045260246000fd5b7f4e487b7100000000000000000000000000000000000000000000000000000000600052601260045260246000fd5b7f4e487b7100000000000000000000000000000000000000000000000000000000600052602260045260246000fd5b7f4e487b7100000000000000000000000000000000000000000000000000000000600052604160045260246000fd5b6000601f19601f8301169050919050565b7f455243373231456e756d657261626c653a206f776e657220696e646578206f7560008201527f74206f6620626f756e6473000000000000000000000000000000000000000000602082015250565b7f4552433732313a207472616e7366657220746f206e6f6e20455243373231526560008201527f63656976657220696d706c656d656e7465720000000000000000000000000000602082015250565b7f4f776e61626c653a206e6577206f776e657220697320746865207a65726f206160008201527f6464726573730000000000000000000000000000000000000000000000000000602082015250565b7f4552433732313a207472616e736665722066726f6d20696e636f72726563742060008201527f6f776e6572000000000000000000000000000000000000000000000000000000602082015250565b7f4552433732313a20746f6b656e20616c7265616479206d696e74656400000000600082015250565b7f4552433732313a207472616e7366657220746f20746865207a65726f2061646460008201527f7265737300000000000000000000000000000000000000000000000000000000602082015250565b7f4552433732313a20617070726f766520746f2063616c6c657200000000000000600082015250565b7f4552433732313a206f70657261746f7220717565727920666f72206e6f6e657860008201527f697374656e7420746f6b656e0000000000000000000000000000000000000000602082015250565b7f4552433732313a20617070726f76652063616c6c6572206973206e6f74206f7760008201527f6e6572206e6f7220617070726f76656420666f7220616c6c0000000000000000602082015250565b7f4552433732313a2062616c616e636520717565727920666f7220746865207a6560008201527f726f206164647265737300000000000000000000000000000000000000000000602082015250565b7f4552433732313a206f776e657220717565727920666f72206e6f6e657869737460008201527f656e7420746f6b656e0000000000000000000000000000000000000000000000602082015250565b7f45524337323155524953746f726167653a2055524920736574206f66206e6f6e60008201527f6578697374656e7420746f6b656e000000000000000000000000000000000000602082015250565b7f4552433732313a206d696e7420746f20746865207a65726f2061646472657373600082015250565b7f45524337323155524953746f726167653a2055524920717565727920666f722060008201527f6e6f6e6578697374656e7420746f6b656e000000000000000000000000000000602082015250565b7f4552433732313a20617070726f76656420717565727920666f72206e6f6e657860008201527f697374656e7420746f6b656e0000000000000000000000000000000000000000602082015250565b7f2e6a736f6e000000000000000000000000000000000000000000000000000000600082015250565b7f4f776e61626c653a2063616c6c6572206973206e6f7420746865206f776e6572600082015250565b7f4552433732314d657461646174613a2055524920717565727920666f72206e6f60008201527f6e6578697374656e7420746f6b656e0000000000000000000000000000000000602082015250565b7f4552433732313a20617070726f76616c20746f2063757272656e74206f776e6560008201527f7200000000000000000000000000000000000000000000000000000000000000602082015250565b7f4552433732313a207472616e736665722063616c6c6572206973206e6f74206f60008201527f776e6572206e6f7220617070726f766564000000000000000000000000000000602082015250565b6135df81612dfe565b81146135ea57600080fd5b50565b6135f681612e10565b811461360157600080fd5b50565b61360d81612e1c565b811461361857600080fd5b50565b61362481612e68565b811461362f57600080fd5b5056fea264697066735822122047d0aaeb23eae17b8b2ee8b3ed3a96240312a543651fb11fabc040936660229a64736f6c63430008040033",
  "linkReferences": {},
  "deployedLinkReferences": {}
}